:020000040000FA
:060000000A128A110C280F
:10000800FE00030EF8000A08F9000A128A111F28D8
:100018000A128A110F280A128A11C9200A128A1193
:10002800FC00F001F101F201F301F401F501830193
:100038000A128A117B280B1C222823284D28831298
:100048000313861C282829282C28F501F50A0B10EB
:100058007503031D302831283A28861C3428352892
:100068003A280130F6007608F3070B10061D3D28E4
:100078003E284128F401F40A0B107403031D452897
:1000880046284D28061D49284A284D280130F302E4
:100098000B10831203130C1F522853286D280C13BE
:1000A8009F18572858286D281E08F6007608F20071
:1000B8001E087C05F6007608F1001E08F6000430DC
:1000C8000310F60CFF3E031D64287608F700770836
:1000D800F0000B1D7028712874280B119C308100CA
:1000E80079088A00780E8300FE0E7E0E09000A1237
:1000F8008A11A1200A128A110A128A11BF200A1233
:100108008A110A128A11CA200A128A11EA30FB00DF
:10011800C330FA00FA0B8E28FB0B8E287308831263
:100128000313880073087206031D9B289C288A28DD
:1001380085148A280A128A110C288316031385014C
:10014800FF3086008701880189018316031788011B
:10015800203089007730831603138F00E8308B0036
:10016800033096009C30831203138100813083167C
:10017800031381000800B730831203139F0083160E
:0E01880003139F0140308C0008000F34080064
:04400E00D4E0FFFFFC
:00000001FF
