:020000040000FA
:060000000A128A110E280D
:10000800FE00030EF6000408F7000A08F8000A12BA
:100018008A1124280A128A1111280A128A115121D8
:100028000A128A11A600A001A101A201A301F901E7
:10003800FA01FB01FC01FD0183010A128A1104295E
:100048000B1C27282828522883120313861C2D28C6
:100058002E283128FD01FD0A0B107D03031D3528CC
:1000680036283F28861839283A283F280130F400D6
:100078007408FC070B10061D422843284628A301D4
:10008800A30A0B102303031D4A284B2852280619DC
:100098004E284F2852280130FC020B1083120313FC
:1000A8000C1F5728582872280C139F185C285D28A5
:1000B80072281E08F4007408A2001E082605F40021
:1000C8007408A1001E08F40004300310F40CFF3E6D
:1000D800031D69287408F5007508A0000B1D752814
:1000E8007628AE280B11443081000130F4007408E2
:1000F800FB0702307B02031C822883288428FB012B
:100108007B08031D88288928992805177A08F40090
:100118007408F00021080A128A11B7200A128A11FD
:100128007A0883120313870085137B03031D9D2818
:100138009E28AE2885177908F4007408F000200876
:100148000A128A11B7200A128A1179088312031336
:100158008700051378088A0077088400760E8300E4
:10016800FE0E7E0E0900F300C9280329032903297E
:100178000329032903290329032903290329032917
:10018800032903290329032903297308F100F2012C
:100198007208003A0319D128B9287108003A0319DE
:1001A800B928013A0319BA28033A0319BB28013AB6
:1001B8000319BC28073A0319BD28013A0319BE28B8
:1001C800033A0319BF28013A0319C0280F3A031943
:1001D800C128013A0319C228033A0319C328013A6E
:1001E8000319C428073A0319C528013A0319C62870
:1001F800033A0319C728013A0319C828B92808007F
:100208000A128A1129210A128A110A128A1147210F
:100218000A128A11EA3083120313A500C230A4001F
:10022800A40B1429A50B142900007C0883120313BE
:1002380088009F1422087C020318232924290E29E8
:1002480085140E290A128A110E28831603138501B4
:10025800FF3086008701880189018316031788010A
:10026800083089007730831603138F00E8308B003D
:1002780003309600443083120313810084308316C0
:10028800031381000800B730831203139F008316FD
:0C02980003139F0140308C0008000F345D
:04400E00D4E0FFFFFC
:00000001FF
