:020000040000FA
:060000000A128A110C280F
:10000800FE00030EF1000A08F2000A128A111628EF
:100018000A128A110F28F501F601F70183010A1265
:100028008A1133280B1C19281A282C288312031329
:10003800861C1F28202825280130F0007008F507A5
:100048000B10061D282829282C280130F5020B1032
:1000580072088A00710E8300FE0E7E0E09000A12D5
:100068008A114E200A128A110A128A1164200A1271
:100078008A111A30F400F830F300F30B4128F40B1E
:100088004128000075088312031388003D280A12CE
:100098008A110C28831603138501FF308600870117
:1000A8008801890183160317880120308900773079
:1000B800831603138F00E8308B0003309600080086
:1000C800B730831203139F00831603139F01403038
:0400D8008C00080090
:04400E00D4E0FFFFFC
:00000001FF
