:020000040000FA
:060000000A128A110E280D
:10000800FE00030EF6000408F7000A08F8000A12BA
:100018008A1124280A128A1111280A128A114F21DA
:100028000A128A11A600A001A101A201A301F901E7
:10003800FA01FB01FC01FD0183010A128A11022960
:100048000B1C27282828522883120313861C2D28C6
:100058002E283128FD01FD0A0B107D03031D3528CC
:1000680036283F28861C39283A283F280130F400D2
:100078007408FB070B10061D422843284628FC017C
:10008800FC0A0B107C03031D4A284B285228061D26
:100098004E284F2852280130FB020B1083120313FD
:1000A8000C1F5728582872280C139F185C285D28A5
:1000B80072281E08F4007408FA001E082605F400C9
:1000C8007408A3001E08F40004300310F40CFF3E6B
:1000D800031D69287408F5007508A2000B1D752812
:1000E8007628AC280B11443081000130F4007408E4
:1000F800F90702307902031C822883288428F90131
:100108007908031D88288928982805172108F400EC
:100118007408F00023080A128A11B5200A128A11FD
:1001280083120313870085137903031D9C289D28D8
:10013800AC2885172008F4007408F00022080A1279
:100148008A11B5200A128A11831203138700051336
:1001580078088A0077088400760E8300FE0E7E0EEB
:100168000900F300C72801290129012901290129CA
:100178000129012901290129012901290129012927
:100188000129012901297308F100F2017208003AD6
:100198000319CF2801297108003A0319B728013A31
:1001A8000319B828033A0319B928013A0319BA28D8
:1001B800073A0319BB28013A0319BC28033A031963
:1001C800BD28013A0319BE280F3A0319BF28013A7E
:1001D8000319C028033A0319C128013A0319C22890
:1001E800073A0319C328013A0319C428033A031923
:1001F800C528013A0319C628012908000A128A11DC
:1002080027210A128A110A128A1145210A128A1113
:10021800EA3083120313A500C230A400A40B1229EC
:10022800A50B122900007B088312031388009F1472
:100238007A087B020318212922290C2985140C2904
:100248000A128A110E28831603138501FF308600CF
:1002580087018801890183160317880120308900E6
:100268007730831603138F00E8308B000330960035
:1002780044308312031381008430831603138100F2
:100288000800B730831203139F00831603139F01DE
:0802980040308C0008000F3417
:04400E00D4E0FFFFFC
:00000001FF
