:020000040000FA
:060000000A128A110C280F
:10000800FE00030EF8000A08F9000A128A111928DE
:100018000A128A110F28F001F101F201F301F4012B
:10002800F50183010A128A116D280B1C1C281D2852
:10003800472883120313861C222823282628F50123
:10004800F50A0B107503031D2A282B283428861C53
:100058002E282F2834280130F6007608F3070B10D5
:10006800061D372838283B28F401F40A0B107403BE
:10007800031D3F2840284728061D432844284728B1
:100088000130F3020B10831203130C1F4C284D2868
:1000980066280C139F185128522866281E08F60057
:1000A8007608F2001E08F6007608F1001E08F60031
:1000B80004300310F60CFF3E031D5D287608F70098
:1000C8007708F00079088A00780E8300FE0E7E0E0D
:1000D80009000A128A1187200A128A110A128A1143
:1000E8009D200A128A11EA30FB00C330FA00FA0B8D
:1000F8007B28FB0B7B28730883120313880077285F
:100108000A128A110C28831603138501FF30860012
:100118008701880189018316031788012030890027
:100128007730831603138F00E8308B000330960076
:100138000800B730831203139F00831603139F012F
:0601480040308C000800AD
:04400E00D4E0FFFFFC
:00000001FF
