:020000040000FA
:060000000A128A110C280F
:10000800FE00030EF1000A08F2000A128A111628EF
:100018000A128A110F28F501F601F70183010A1265
:100028008A114B280B1C19281A282C288312031311
:10003800861C1F28202825280130F0007008F507A5
:100048000B10061D282829282C280130F5020B1032
:1000580072088A00710E8300FE0E7E0E0900831658
:1000680003138501FF308600870188018901831603
:1000780003178801203089007730831603138F0017
:10008800E8308B0040308C000330960008000A12DC
:100098008A1133200A128A111A30F400F830F3005A
:1000A800F30B5428F40B542800007508831203132B
:0A00B800880050280A128A110C2853
:04400E00D4E0FFFFFC
:00000001FF
